:100000000C94E3000C9414010C9414010C9414014E
:100010000C9414010C9414010C9414010C9414010C
:100020000C9414010C9414010C9414010C941401FC
:100030000C9414010C9414010C9414010C941401EC
:100040000C9414010C9414010C9414010C941401DC
:100050000C9414010C9414010C9414010C948E0251
:100060000C9414010C9402030C94D8020C94140107
:100070000C9414010C9414010C9414010C941401AC
:100080000C9414010C9414010C9414010C9414019C
:100090000C9414010C9414010C9414010C9414018C
:1000A0000C9414010C9414010C9414010C9414017C
:1000B0000C9414010C9414010C9414010C9414016C
:1000C0000C9414010C9414010C9414010C9414015C
:1000D0000C9414010C9414010C9414010C9414014C
:1000E0000C9414010C941F020C94D2010C948C01FA
:1000F0000C9478010C949A010C943B010C946901C6
:100100000C94350500002200250028002B002E004D
:100110003100340002010000050108010B0100005C
:100120002100240027002A002D00300033000101A7
:100130000000040107010A01050505050705080877
:100140000808020202020A0A080804040404010161
:100150000101010101010303030303030303040776
:1001600007070C0C0C0C0C0C0C0C0202020206060D
:100170000606060606060B0B0B0B0B0B0B0B010200
:1001800010202008081020401020408002010201A9
:100190000804020101020408102040808040201061
:1001A00008040201800402018040201008040201BA
:1001B0000804020101020408102040800102040822
:1001C00010204080350511241FBECFEFD1E2DEBFE5
:1001D000CDBF00E00CBF12E0A0E0B2E0EAEBFEE031
:1001E00000E00BBF02C007900D92A232B107D9F711
:1001F00022E0A2E2B2E001C01D92A83CB207E1F702
:1002000010E0C3EED0E000E006C021970109802F86
:10021000FE010E948405C23ED10780E00807A9F7CD
:100220000E9438030C945B070C9400003FB7F894CD
:100230008091270290912802A0912902B0912A0270
:1002400026B5A89B05C02F3F19F00196A11DB11D31
:100250003FBFBA2FA92F982F8827820F911DA11D6C
:10026000B11DBC01CD0142E0660F771F881F991FA9
:100270004A95D1F70895CF92DF92EF92FF920F93B4
:100280001F93CF93DF936C017A018B01C0E0D0E024
:10029000CE15DF0581F0D8016D918D01D601ED916C
:1002A000FC910190F081E02DC6011995892B11F088
:1002B0002196EECF7E01C701DF91CF911F910F9163
:1002C000FF90EF90DF90CF900895089580E090E048
:1002D0000895FC01538D448D252F30E0842F90E04C
:1002E000821B930B541710F0CF9608950197089531
:1002F000FC01918D828D981761F0828DDF01A80F2E
:10030000B11D5D968C91928D9F5F9F73928F90E04F
:1003100008958FEF9FEF0895FC01918D828D9817BE
:1003200031F0828DE80FF11D858D90E008958FEFFB
:100330009FEF0895FC01918D228D892F90E0805CC4
:100340009F4F821B91098F73992708958BE292E04A
:100350000E949A0121E0892B09F420E0822F089560
:10036000FC01848DDF01A80FB11DA35ABF4F2C9152
:10037000848D90E001968F739927848FA689B78921
:100380002C93A089B1898C91837080648C93938D18
:10039000848D981306C00288F389E02D80818F7DBB
:1003A00080830895EF92FF920F931F93CF93DF9373
:1003B000EC0181E0888F9B8D8C8D981305C0E889B6
:1003C000F989808185FD26C0F62E0B8D10E00F5F28
:1003D0001F4F0F731127E02E8C8DE8120CC00FB643
:1003E00007FCFACFE889F989808185FFF5CFCE0136
:1003F0000E94B001F1CF8B8DFE01E80FF11DE35A91
:10040000FF4FF0829FB7F8940B8FEA89FB898081B8
:1004100080620AC09FB7F894EE89FF896083E889FB
:10042000F98980818370806480839FBF81E090E040
:10043000DF91CF911F910F91FF90EF900895CF938F
:10044000DF93EC01888D8823C9F0EA89FB898081DC
:1004500085FD05C0A889B9898C9186FD0FC00FB6AE
:1004600007FCF5CF808185FFF2CFA889B9898C91EF
:1004700085FFEDCFCE010E94B001E7CFDF91CF9194
:10048000089580E090E0892B21F00E94A60181115F
:1004900025C080E090E0892B41F080E090E0892B3E
:1004A00021F00E94000081111CC080E090E0892BA7
:1004B00041F080E090E0892B21F00E940000811142
:1004C00013C080E090E0892BA1F080E090E0892BC0
:1004D00081F00E94000081110AC008950E9400006E
:1004E000D8CF0E940000E1CF0E940000EACF0C9418
:1004F00000000895009769F0FC0101900020E9F7E1
:100500003197AF01481B590BBC018BE292E00C9470
:100510003B0180E090E008950E9456071F920F92E1
:100520000FB60F9211242F933F938F939F93AF9306
:10053000BF938091230290912402A0912502B09153
:1005400026023091220223E0230F2D3720F401965A
:10055000A11DB11D05C026E8230F0296A11DB11DE6
:10056000209322028093230290932402A0932502D9
:10057000B09326028091270290912802A09129022F
:10058000B0912A020196A11DB11D8093270290937C
:100590002802A0932902B0932A02BF91AF919F91A4
:1005A0008F913F912F910F900FBE0F901F90189534
:1005B0001F920F920FB60F9211240BB60F922F932A
:1005C0003F934F935F936F937F938F939F93AF93DB
:1005D000BF93EF93FF938BE292E00E94B001FF91F3
:1005E000EF91BF91AF919F918F917F916F915F91AB
:1005F0004F913F912F910F900BBE0F900FBE0F9018
:100600001F9018951F920F920FB60F9211240BB6E0
:100610000F922F938F939F93EF93FF93E0913B0261
:10062000F0913C028081E0914102F091420282FD12
:1006300012C09081809144028F5F8F732091450298
:10064000821751F0E0914402F0E0E55DFD4F958F97
:100650008093440201C08081FF91EF919F918F911F
:100660002F910F900BBE0F900FBE0F901F901895FB
:10067000CF93DF93CDB7DEB7A1970FB6F894DEBF67
:100680000FBECDBF789484B5826084BD84B581608F
:1006900084BD85B5826085BD85B5816085BD80914D
:1006A0006E00816080936E001092810080918100C5
:1006B00082608093810080918100816080938100BD
:1006C000809180008160809380008091B10084607F
:1006D0008093B1008091B00081608093B0008091E0
:1006E000910082608093910080919100816080935D
:1006F0009100809190008160809390008091A10092
:1007000082608093A1008091A10081608093A1000C
:100710008091A00081608093A0008091210182607F
:10072000809321018091210181608093210180913A
:10073000200181608093200180917A008460809301
:100740007A0080917A00826080937A0080917A00AA
:10075000816080937A0080917A00806880937A002B
:100760001092C100E4EBF1E02491EEE6F1E0849117
:100770008823C9F090E0880F991FFC01E25EFE4FCC
:1007800045915491FC01EC5FFE4FA591B4919FB748
:10079000F894FA0180812095822380838C91E22F46
:1007A000E823EC939FBFE0913B02F0913C0282E092
:1007B0008083E0913702F09138021082E091390293
:1007C000F0913A028FEC808310924302E0913F0255
:1007D000F091400286E08083E0913D02F0913E027C
:1007E000808180618083E0913D02F0913E028081B2
:1007F00088608083E0913D02F0913E0280818068B4
:100800008083E0913D02F0913E0280818F7D808364
:1008100090E4392E80917B00877F80937B0030921B
:100820007C0080917A00806480937A0080917A00C5
:1008300086FDFCCF609178008091790070E0782B84
:10084000072E000C880B990B0E942F0620E030E049
:1008500040E85AE30E94E40620E030E040EA50E439
:100860000E94E40620E030E040E05FE30E948C0557
:1008700020E030E048EC52E40E94E4066B017C0189
:100880004B015C019B01AC010E945107882319F0C8
:1008900082E192E01AC026013701E89477F82FEF41
:1008A0003FEF4FE75FE7C301B2010E94510781119B
:1008B0000FC02FEF3FEF4FE75FE7C301B2010E9488
:1008C000F90518162CF486E192E00E947A02A0C085
:1008D0002FEF3FEF4FE75FE4C701B6010E94DF064D
:1008E00018161CF48AE192E0F0CF2FEF3FEF4FE7AC
:1008F0005FECC701B6010E94F90587FDF3CF20E048
:1009000030E0A901C701B6010E94F90587FF0BC0BD
:100910006DE28BE292E00E94D20146015701B7FAE4
:10092000B094B7F8B0942AE037ED43EA5BE3C50131
:10093000B4010E948D056B017C010E94FE054B01F4
:100940005C010E942D069B01AC01C701B6010E940B
:100950008C052B013C0119A27E01F1E2EF0EF11C86
:100960000E2DDF2CC501B4012AE030E040E050E05C
:100970000E94620549015A01605DF70162937F019F
:10098000232B242B252B71F7CF010E947A026EE2D4
:100990008BE292E00E94D20113E01150C9F120E0F5
:1009A00030E040E251E4C301B2010E94E4064B0191
:1009B0005C010E94FE059B0140E050E019A2E02E80
:1009C000FD2C562E632E742EC52ECA01B9012AE0C5
:1009D00030E040E050E00E946205605DF701629304
:1009E0007F01211531054105510579F7CF010E949D
:1009F0007A02652D762D872D9C2D0E942D069B0158
:100A0000AC01C501B4010E948C052B013C01C5CF8E
:100A10008EE192E00E947A020E9416014B015C0175
:100A200084E6C82ED12CE12CF12C0E941601DC01A9
:100A3000CB0188199909AA09BB09883E9340A105F1
:100A4000B10598F3F1E0CF1AD108E108F10828EEDA
:100A5000820E23E0921EA11CB11CC114D104E1043A
:100A6000F10419F70E944102D5CEEBE2F2E01382C5
:100A7000128288EE93E0A0E0B0E084839583A683A1
:100A8000B78384E092E09183808385EC90E0958742
:100A9000848784EC90E09787868780EC90E0918B48
:100AA000808B81EC90E0938B828B82EC90E0958B35
:100AB000848B86EC90E0978B868B118E128E138E32
:100AC000148E0895A1E21A2EAA1BBB1BFD010DC0B6
:100AD000AA1FBB1FEE1FFF1FA217B307E407F507EE
:100AE00020F0A21BB30BE40BF50B661F771F881FCA
:100AF000991F1A9469F760957095809590959B0160
:100B0000AC01BD01CF010895EE0FFF1F881F8BBF01
:100B10000790F691E02D19945058BB27AA270E9400
:100B2000A4050C94A5060E94970638F00E949E0624
:100B300020F039F49F3F19F426F40C9494060EF437
:100B4000E095E7FB0C948E06E92F0E94B60658F359
:100B5000BA17620773078407950720F079F4A6F5A2
:100B60000C94D8060EF4E0950B2EBA2FA02D0B0195
:100B7000B90190010C01CA01A0011124FF27591BE2
:100B800099F0593F50F4503E68F11A16F040A22FE8
:100B9000232F342F4427585FF3CF46953795279559
:100BA000A795F0405395C9F77EF41F16BA0B620B58
:100BB000730B840BBAF09150A1F0FF0FBB1F661F9F
:100BC000771F881FC2F70EC0BA0F621F731F841FE2
:100BD00048F4879577956795B795F7959E3F08F008
:100BE000B0CF9395880F08F09927EE0F97958795CA
:100BF00008950E946A0608F481E008950E94BE06E6
:100C000088F09F5798F0B92F9927B751B0F0E1F0CD
:100C1000660F771F881F991F1AF0BA95C9F714C07D
:100C2000B13091F00E94D806B1E008950C94D80636
:100C3000672F782F8827B85F39F0B93FCCF38695B6
:100C400077956795B395D9F73EF490958095709513
:100C500061957F4F8F4F9F4F0895E89409C097FB90
:100C60003EF490958095709561957F4F8F4F9F4F83
:100C70009923A9F0F92F96E9BB279395F6958795C7
:100C800077956795B795F111F8CFFAF4BB0F11F48A
:100C900060FF1BC06F5F7F4F8F4F9F4F16C0882331
:100CA00011F096E911C0772321F09EE8872F762F67
:100CB00005C0662371F096E8862F70E060E02AF0A8
:100CC0009A95660F771F881FDAF7880F9695879594
:100CD00097F90895990F0008550FAA0BE0E8FEEF69
:100CE00016161706E807F907C0F012161306E407F0
:100CF000F50798F0621B730B840B950B39F40A26E9
:100D000061F0232B242B252B21F408950A2609F4C6
:100D1000A140A6958FEF811D811D089597F99F67CA
:100D200080E870E060E008959FEF80EC0895002473
:100D30000A941616170618060906089500240A9440
:100D400012161306140605060895092E0394000CC6
:100D500011F4882352F0BB0F40F4BF2B11F460FF55
:100D600004C06F5F7F4F8F4F9F4F089557FD90587E
:100D7000440F551F59F05F3F71F04795880F97FB5F
:100D8000991F61F09F3F79F0879508951216130619
:100D90001406551FF2CF4695F1DF08C01616170648
:100DA0001806991FF1CF869571056105089408957D
:100DB000E894BB2766277727CB0197F908950E940F
:100DC0006A0608F48FEF08950E94F7060C94A506B2
:100DD0000E94970638F00E949E0620F0952311F09D
:100DE0000C948E060C94940611240C94D9060E943F
:100DF000B60670F3959FC1F3950F50E0551F629FA3
:100E0000F001729FBB27F00DB11D639FAA27F00D63
:100E1000B11DAA1F649F6627B00DA11D661F829F8A
:100E20002227B00DA11D621F739FB00DA11D621F6F
:100E3000839FA00D611D221F749F3327A00D611D8C
:100E4000231F849F600D211D822F762F6A2F11246E
:100E50009F5750409AF0F1F088234AF0EE0FFF1FA1
:100E6000BB1F661F771F881F91505040A9F79E3FF8
:100E7000510580F00C948E060C94D9065F3FE4F384
:100E8000983ED4F3869577956795B795F795E7954E
:100E90009F5FC1F7FE2B880F911D9695879597F957
:100EA00008950E946A06880B990B089581E090E0EE
:0A0EB000F8940C945B07F894FFCF50
:100EBA0000000000D2013B0169011F029A0178017A
:100ECA008C016E616E00696E66006F7666000D0AAF
:020EDA00000016
:00000001FF
