:100000000C943A010C946B010C946B010C946B01F1
:100010000C946B010C946B010C946B010C946B01B0
:100020000C946B010C946B010C946B010C946B01A0
:100030000C946B010C946B010C946B010C946B0190
:100040000C946B010C946B010C946B010C946B0180
:100050000C946B010C946B010C946B010C94B70322
:100060000C946B010C942B040C9401040C946B0104
:100070000C946B010C946B010C946B010C946B0150
:100080000C946B010C946B010C946B010C946B0140
:100090000C946B010C946B010C946B010C946B0130
:1000A0000C946B010C946B010C946B010C946B0120
:1000B0000C946B010C946B010C946B010C946B0110
:1000C0000C946B010C946B010C946B010C946B0100
:1000D0000C946B010C946B010C946B010C946B01F0
:1000E0000C946B0198019B018A018E019201D2014F
:1000F0009F01A301A901AD01B101B701BB01BF017E
:10010000D201C501C901CD010C9498010C94A30141
:100110000C9483020C949F010C94A9010C94BF01D0
:100120000C94D2010C9497020C94DD020C944602BC
:100130000C948A010C94C5010C942A030C94C901F7
:100140000C9474020C94B1010C949B010C94BB01AF
:100150000C948E010C94CD010C9492010C947D05AD
:100160000C94AD010C94B7010C94A5020000210081
:10017000240027002A002D00300033000101000078
:10018000040107010A0100002200250028002B00BD
:100190002E003100340002010000050108010B01AE
:1001A00005050505070508080808020202020A0AF3
:1001B0000808040404040101010101010101030311
:1001C000030303030303040707070C0C0C0C0C0CBC
:1001D0000C0C0202020206060606060606060B0BB9
:1001E0000B0B0B0B0B0B01021020200808102040FA
:1001F00010204080020102010804020101020408EB
:100200001020408080402010080402018004020178
:1002100080402010080402010804020101020408C1
:1002200010204080010204081020408000000A0BCA
:1002300002090C0D0E080703040100000000000075
:1002400000000000000000000000000000000000AE
:10025000000000000000000012111000000000006B
:10026000000000000000000000000000000000008E
:1002700000007D0511241FBECFEFD1E2DEBFCDBF50
:1002800000E00CBF12E0A0E0B2E0E2E7FBE000E03B
:100290000BBF02C007900D92A231B107D9F722E03F
:1002A000A2E1B2E001C01D92A93BB207E1F711E063
:1002B000CAE3D1E000E006C021970109802FFE01CA
:1002C0000E94AA05C933D10780E00807A9F70E9458
:1002D00061040C94B7050C940000382FE8E3F2E0B9
:1002E0004491E2EFF1E02491ECEAF1E0949199235A
:1002F00009F46CC0442309F455C050E0FA01319769
:10030000E231F10508F04EC08827EE58FF4F8F4FBD
:100310000C94AA05809180008F7707C0809180009F
:100320008F7D03C080918000877F809380003AC0DA
:1003300084B58F7702C084B58F7D84BD33C0809132
:10034000B0008F7703C08091B0008F7D8093B000A4
:1003500029C0809190008F7707C0809190008F7D99
:1003600003C080919000877F809390001BC0809194
:10037000A0008F7707C08091A0008F7D03C080917F
:10038000A000877F8093A0000DC0809120018F770F
:1003900007C0809120018F7D03C080912001877F5D
:1003A00080932001E92FF0E0EE0FFF1FEA57FE4F88
:1003B000A591B4919FB7F894311104C08C91209508
:1003C000282302C0EC912E2B2C939FBF08953FB79A
:1003D000F8948091B5029091B602A091B702B091C5
:1003E000B80226B5A89B05C02F3F19F00196A11DA4
:1003F000B11D3FBFBA2FA92F982F8827820F911DBB
:10040000A11DB11DBC01CD0142E0660F771F881F01
:10041000991F4A95D1F708958F929F92AF92BF92FC
:10042000CF92DF92EF92FF926B017C010E94E70175
:100430004B015C01C114D104E104F104F1F00E940C
:10044000E701DC01CB0188199909AA09BB09883E9B
:100450009340A105B10570F321E0C21AD108E1086B
:10046000F10888EE880E83E0981EA11CB11CC1140F
:10047000D104E104F10419F7DDCFFF90EF90DF9094
:10048000CF90BF90AF909F908F900895CF92DF92C2
:10049000EF92FF920F931F93CF93DF936C017A013A
:1004A0008B01C0E0D0E0CE15DF0581F0D8016D9161
:1004B0008D01D601ED91FC910190F081E02DC601F6
:1004C0001995892B11F02196EECF7E01C701DF919E
:1004D000CF911F910F91FF90EF90DF90CF900895F3
:1004E000089580E090E00895FC01538D448D252F00
:1004F00030E0842F90E0821B930B541710F0CF96BE
:10050000089501970895FC01918D828D981761F0EF
:10051000828DDF01A80FB11D5D968C91928D9F5F3A
:100520009F73928F90E008958FEF9FEF0895FC01E5
:10053000918D828D981731F0828DE80FF11D858D98
:1005400090E008958FEF9FEF0895FC01918D228D2B
:10055000892F90E0805C9F4F821B91098F739927B0
:10056000089583E192E00E94A50221E0892B09F41D
:1005700020E0822F0895FC01848DDF01A80FB11DBA
:10058000A35ABF4F2C91848D90E001968F739927C9
:10059000848FA689B7892C93A089B1898C918370A7
:1005A00080648C93938D848D981306C00288F389A0
:1005B000E02D80818F7D80830895EF92FF920F93CD
:1005C0001F93CF93DF93EC0181E0888F9B8D8C8DFF
:1005D000981305C0E889F989808185FD26C0F62E2B
:1005E0000B8D10E00F5F1F4F0F731127E02E8C8DC6
:1005F000E8120CC00FB607FCFACFE889F9898081B0
:1006000085FFF5CFCE010E94BB02F1CF8B8DFE019D
:10061000E80FF11DE35AFF4FF0829FB7F8940B8F5C
:10062000EA89FB89808180620AC09FB7F894EE89CD
:10063000FF896083E889F989808183708064808381
:100640009FBF81E090E0DF91CF911F910F91FF90CC
:10065000EF900895CF93DF93EC01888D8823C9F044
:10066000EA89FB89808185FD05C0A889B9898C91BB
:1006700086FD0FC00FB607FCF5CF808185FFF2CF56
:10068000A889B9898C9185FFEDCFCE010E94BB026C
:10069000E7CFDF91CF91089580E090E0892B21F0A2
:1006A0000E94B102811125C080E090E0892B41F0C9
:1006B00080E090E0892B21F00E94000081111CC095
:1006C00080E090E0892B41F080E090E0892B21F0E0
:1006D0000E940000811113C080E090E0892BA1F0FE
:1006E00080E090E0892B81F00E94000081110AC017
:1006F00008950E940000D8CF0E940000E1CF0E9420
:100700000000EACF0C94000008956CE271E080E0F4
:1007100090E00C940C0281E00E946D016CE271E0AB
:1007200080E090E00E940C0280E00E946D0164E68F
:1007300070E080E090E00C940C0281E00E946D017A
:1007400064E670E080E090E00E940C0280E00E948D
:100750006D0164E670E080E090E00C940C020E9471
:100760009D030E948B030C9485030E94B2051F9287
:100770000F920FB60F9211242F933F938F939F9355
:10078000AF93BF938091B1029091B202A091B30256
:10079000B091B4023091B00223E0230F2D3720F442
:1007A0000196A11DB11D05C026E8230F0296A11DCB
:1007B000B11D2093B0028093B1029093B202A09336
:1007C000B302B093B4028091B5029091B602A091A9
:1007D000B702B091B8020196A11DB11D8093B50278
:1007E0009093B602A093B702B093B802BF91AF91B5
:1007F0009F918F913F912F910F900FBE0F901F905F
:1008000018951F920F920FB60F9211240BB60F92EC
:100810002F933F934F935F936F937F938F939F9308
:10082000AF93BF93EF93FF9383E192E00E94BB02EB
:10083000FF91EF91BF91AF919F918F917F916F91B8
:100840005F914F913F912F910F900BBE0F900FBE74
:100850000F901F9018951F920F920FB60F921124B0
:100860000BB60F922F938F939F93EF93FF93E0918B
:100870002302F09124028081E0912902F0912A0262
:1008800082FD12C0908180912C028F5F8F73209126
:100890002D02821751F0E0912C02F0E0ED5EFD4F49
:1008A000958F80932C0201C08081FF91EF919F91E1
:1008B0008F912F910F900BBE0F900FBE0F901F9036
:1008C0001895789484B5826084BD84B5816084BDB8
:1008D00085B5826085BD85B5816085BD80916E00DE
:1008E000816080936E00109281008091810082600F
:1008F000809381008091810081608093810080914C
:1009000080008160809380008091B100846080933A
:10091000B1008091B00081608093B000809191001F
:10092000826080939100809191008160809391001A
:10093000809190008160809390008091A1008260FE
:100940008093A1008091A10081608093A10080919B
:10095000A00081608093A00080912101826080933B
:1009600021018091210181608093210180912001EA
:1009700081608093200180917A00846080937A0066
:1009800080917A00826080937A0080917A00816001
:1009900080937A0080917A00806880937A00109228
:1009A000C100E2EFF1E02491ECEAF1E084918823C8
:1009B00099F090E0880F991FFC01E459FE4FA59132
:1009C000B491FC01EA57FE4F859194918FB7F8944A
:1009D000EC91E22BEC938FBFE0912302F091240283
:1009E00082E08083E0911F02F09120021082E0916A
:1009F0002102F09122028FEC808310922B02E09171
:100A00002702F091280286E08083E0912502F09190
:100A10002602808180618083E0912502F091260288
:100A2000808188608083E0912502F0912602808198
:100A300080688083E0912502F091260280818F7D7D
:100A4000808383E192E00E94A502892B09F452C0C1
:100A500083E192E00E948302C82F809312028F7D6F
:100A6000813419F40E94AF0323C0823459F40E94E8
:100A70008B030E949D030E949D030E949D030E9480
:100A800085031CC0833439F40E948B030E949D03AC
:100A90000E948B0306C0843449F40E948B030E9499
:100AA0009D030E949D030E94850324C0813431F47C
:100AB0000E94AF030E94AF03C13611F0C134D1F4DC
:100AC0000E94AF03C13611F0C134A1F40E94AF03FC
:100AD000C13611F0C13471F40E94AF03C13611F078
:100AE000C13441F40E94AF03C13611F0C13411F496
:100AF0000E94AF030E944C03A4CFE3E1F2E0138213
:100B0000128288EE93E0A0E0B0E084839583A68310
:100B1000B78384E092E09183808385EC90E09587B1
:100B2000848784EC90E09787868780EC90E0918BB7
:100B3000808B81EC90E0938B828B82EC90E0958BA4
:100B4000848B86EC90E0978B868B118E128E138EA1
:100B5000148E0895EE0FFF1F881F8BBF0790F6912C
:100B6000E02D199481E090E0F8940C94B705F89486
:020B7000FFCFB5
:100B720000000000DD02460274022A03A50283027D
:020B82009702D8
:00000001FF
