:100000000C9447010C9478010C9478010C947801BD
:100010000C9478010C9478010C9478010C9478017C
:100020000C9478010C9478010C9478010C9478016C
:100030000C9478010C9478010C9478010C9478015C
:100040000C9478010C9478010C9478010C9478014C
:100050000C9478010C9478010C9478010C9487032B
:100060000C9478010C94FB030C94D1030C9478014C
:100070000C9478010C9478010C9478010C9478011C
:100080000C9478010C9478010C9478010C9478010C
:100090000C9478010C9478010C9478010C947801FC
:1000A0000C9478010C9478010C9478010C947801EC
:1000B0000C9478010C9478010C9478010C947801DC
:1000C0000C9478010C9478010C9478010C947801CC
:1000D0000C9478010C9478010C9478010C947801BC
:1000E0000C947801A901AC019B019F01A301E301DC
:1000F000B001B401BA01BE01C201C801CC01D001F6
:10010000E301D601DA01DE010C9462020C94AC0129
:100110000C9471020C94E3010C94B4010C949B01B7
:100120000C9493020C94C2010C9434020C9485023A
:100130000C94D6010C94A3010C94A9010C94BA015F
:100140000C94CC010C94BE010C94DE010C941803A9
:100150000C94DA010C94CB020C94C8010C949F010E
:100160000C94D0010C94B0010C94DC05000020002C
:100170002300260029002C002F003200000100007F
:1001800003010601090100002100240027002A00C4
:100190002D003000330001010000040107010A01B5
:1001A00000002200250028002B002E003100340022
:1001B00002010000050108010B0105050505070501
:1001C00008080808020202020A0A080804040404D3
:1001D00001010101010101010303030303030303FF
:1001E000040707070C0C0C0C0C0C0C0C020202028E
:1001F00006060606060606060B0B0B0B0B0B0B0B77
:100200000102102020080810204010204080020128
:10021000020108040201010204081020408080400D
:10022000201008040201800402018040201008040C
:1002300002010804020101020408102040800102AA
:1002400004081020408000000A0B02090C0D0E0863
:10025000070304010000000000000000000000008F
:10026000000000000000000000000000000000008E
:10027000000012111000000000000000000000004B
:10028000000000000000000000000000DC05112458
:100290001FBECFEFD1E2DEBFCDBF00E00CBF12E04A
:1002A000A0E0B2E0E6EDFEE000E00BBF02C0079088
:1002B0000D92AA31B107D9F722E0AAE1B2E001C05C
:1002C0001D92A03CB207E1F711E0C7E4D1E000E0E5
:1002D00006C021970109802FFE010E942B06C6341B
:1002E000D10780E00807A9F70E9476040C946907FB
:1002F0000C940000362F90E0FC01EA5BFD4F449126
:10030000FC01E050FE4F2491FC01E654FE4F949115
:10031000992309F46CC0442309F455C050E0FA0154
:100320003197E231F10508F04EC08827EE58FF4FB3
:100330008F4F0C942B06809180008F7707C080919F
:1003400080008F7D03C080918000877F8093800034
:100350003AC084B58F7702C084B58F7D84BD33C029
:100360008091B0008F7703C08091B0008F7D809323
:10037000B00029C0809190008F7707C080919000D5
:100380008F7D03C080919000877F809390001BC079
:100390008091A0008F7707C08091A0008F7D03C05F
:1003A0008091A000877F8093A0000DC080912001E4
:1003B0008F7707C0809120018F7D03C0809120013D
:1003C000877F80932001E92FF0E0EE0FFF1FE056BA
:1003D000FE4FA591B4919FB7F894311104C08C9150
:1003E0002095282302C0EC912E2B2C939FBF0895BB
:1003F000CF93DF9390E0FC01E050FE4F2491FC018D
:10040000E654FE4F8491882361F190E0880F991F94
:10041000FC01EA57FE4FC591D491FC01E056FE4F16
:10042000A591B491611109C09FB7F8948881209576
:1004300082238883EC912E230BC0623061F49FB736
:10044000F8948881322F309583238883EC912E2B6A
:100450002C939FBF06C08FB7F894E8812E2B28837A
:100460008FBFDF91CF910895CF92DF92EF92FF92ED
:100470000F931F93CF93DF936C017A018B01C0E040
:10048000D0E0CE15DF0581F0D8016D918D01D60148
:10049000ED91FC910190F081E02DC6011995892B19
:1004A00011F02196EECF7E01C701DF91CF911F9110
:1004B0000F91FF90EF90DF90CF900895089580E026
:1004C00090E00895FC01538D448D252F30E0842F5A
:1004D00090E0821B930B541710F0CF96089501976C
:1004E0000895FC01918D828D981761F0828DDF0156
:1004F000A80FB11D5D968C91928D9F5F9F73928F17
:1005000090E008958FEF9FEF0895FC01918D828D0B
:10051000981731F0828DE80FF11D858D90E00895D8
:100520008FEF9FEF0895FC01918D228D892F90E030
:10053000805C9F4F821B91098F739927089583E2F6
:1005400092E00E94930221E0892B09F420E0822F9F
:100550000895FC01848DDF01A80FB11DA35ABF4F80
:100560002C91848D90E001968F739927848FA689B2
:10057000B7892C93A089B1898C91837080648C9306
:10058000938D848D981306C00288F389E02D8081B5
:100590008F7D80830895EF92FF920F931F93CF93E7
:1005A000DF93EC0181E0888F9B8D8C8D981305C0C3
:1005B000E889F989808185FD26C0F62E0B8D10E033
:1005C0000F5F1F4F0F731127E02E8C8DE8120CC0A8
:1005D0000FB607FCFACFE889F989808185FFF5CF4E
:1005E000CE010E94A902F1CF8B8DFE01E80FF11D13
:1005F000E35AFF4FF0829FB7F8940B8FEA89FB898B
:10060000808180620AC09FB7F894EE89FF89608379
:10061000E889F98980818370806480839FBF81E04D
:1006200090E0DF91CF911F910F91FF90EF9008958F
:10063000CF93DF93EC01888D8823C9F0EA89FB8989
:10064000808185FD05C0A889B9898C9186FD0FC080
:100650000FB607FCF5CF808185FFF2CFA889B98955
:100660008C9185FFEDCFCE010E94A902E7CFDF91EB
:10067000CF91089580E090E0892B21F00E949F02A5
:10068000811125C080E090E0892B41F080E090E06E
:10069000892B21F00E94000081111CC080E090E0B5
:1006A000892B41F080E090E0892B21F00E9400002E
:1006B000811113C080E090E0892BA1F080E090E0F0
:1006C000892B81F00E94000081110AC008950E94C8
:1006D0000000D8CF0E940000E1CF0E940000EACFC6
:1006E0000C9400000895009769F0FC01019000202F
:1006F000E9F73197AF01481B590BBC0183E292E047
:100700000C94340280E090E008950E9464071F92E8
:100710000F920FB60F9211242F933F938F939F93B5
:10072000AF93BF9380911F0290912002A09121026C
:10073000B091220230911E0223E0230F2D3720F4C6
:100740000196A11DB11D05C026E8230F0296A11D2B
:10075000B11D20931E0280931F0290932002A0934C
:100760002102B093220280911A0290911B02A09163
:100770001C02B0911D020196A11DB11D80931A02A9
:1007800090931B02A0931C02B0931D02BF91AF91E6
:100790009F918F913F912F910F900FBE0F901F90BF
:1007A00018951F920F920FB60F9211240BB60F924D
:1007B0002F933F934F935F936F937F938F939F9369
:1007C000AF93BF93EF93FF9383E292E00E94A9025D
:1007D000FF91EF91BF91AF919F918F917F916F9119
:1007E0005F914F913F912F910F900BBE0F900FBED5
:1007F0000F901F9018951F920F920FB60F92112411
:100800000BB60F922F938F939F93EF93FF93E091EB
:100810003302F09134028081E0913902F0913A0282
:1008200082FD12C0908180913C028F5F8F73209176
:100830003D02821751F0E0913C02F0E0ED5DFD4F8A
:10084000958F80933C0201C08081FF91EF919F9131
:100850008F912F910F900BBE0F900FBE0F901F9096
:100860001895CF92DF92EF92FF920F931F93E82F8C
:10087000F92F05C0015011092109310961F1908159
:1008800096239417B9F305C00150110921093109C4
:1008900011F1908196239413F7CFC12CD12CE12C28
:1008A000F12C0AC08FEFC81AD80AE80AF80A0C150A
:1008B0001D052E053F0579F080818623841791F36D
:1008C0006C2D7D2D8E2D9F2D1F910F91FF90EF9000
:1008D000DF90CF90089560E070E080E090E01F919D
:1008E0000F91FF90EF90DF90CF900895CF93DF931B
:1008F000CDB7DEB7A1970FB6F894DEBF0FBECDBF60
:10090000789484B5826084BD84B5816084BD85B5EA
:10091000826085BD85B5816085BD80916E008160F6
:1009200080936E001092810080918100826080939C
:10093000810080918100816080938100809180009E
:100940008160809380008091B10084608093B100C9
:100950008091B00081608093B000809191008260AE
:1009600080939100809191008160809391008091AB
:1009700090008160809390008091A10082608093BC
:10098000A1008091A10081608093A1008091A000CE
:1009900081608093A0008091210182608093210179
:1009A00080912101816080932101809120018160EB
:1009B0008093200180917A00846080937A008091F6
:1009C0007A00826080937A0080917A0081608093BF
:1009D0007A0080917A00806880937A001092C1003A
:1009E000E0913302F091340282E08083E0912F02A3
:1009F000F09130021082E0913102F09132028FECDE
:100A0000808310923B02E0913702F091380286E039
:100A10008083E0913502F09136028081806180838D
:100A2000E0913502F0913602808188608083E09108
:100A30003502F0913602808180688083E091350232
:100A4000F091360280818F7D808361E08DE20E948B
:100A5000F80161E087E20E94F80161E08BE20E9408
:100A6000F80160E089E20E94F80193E0E92EF12CA0
:100A700023E2C22ED12C39E2232E32E0332E4AE07B
:100A8000842E912CA12CB12C61E08DE20E947A0180
:100A900060E087E20E947A0160E08BE20E947A01C6
:100AA000C7010197F1F761E08BE20E947A01C6016C
:100AB0000197F1F760E08BE20E947A01F101649105
:100AC000E3EEF1E08491E82FF0E0EE0FFF1FE45930
:100AD000FE4F8591949100E412E42FE030E0462F20
:100AE0000E943104611571058105910549F0DC0111
:100AF000CB010196A11DB11DBC01CD019F7003C0AA
:100B000060E070E0CB010E946B0626E933E44BE025
:100B10005DE30E94CF0620E030E040E05FE30E940A
:100B2000CF060E9433062B01770F6608770877FE01
:100B300020C06DE283E292E00E94CB02222733279D
:100B4000A901241935094609570919A2CE01819630
:100B50003C01CA01B901A50194010E940906605D2A
:100B6000F30162933F01211531054105510589F7D4
:100B700015C0A301920119A2CE0181963C01CA01C0
:100B8000B901A50194010E940906605DF301629319
:100B90003F01211531054105510589F7C3010E9427
:100BA000730382E192E00E94730387E192E00E9466
:100BB00073030E943A0368CFE3E2F2E013821282E9
:100BC00088EE93E0A0E0B0E084839583A683B783AA
:100BD00084E092E09183808385EC90E09587848720
:100BE00084EC90E09787868780EC90E0918B808BF7
:100BF00081EC90E0938B828B82EC90E0958B848BE0
:100C000086EC90E0978B868B118E128E138E148E4D
:100C10000895A1E21A2EAA1BBB1BFD010DC0AA1F3D
:100C2000BB1FEE1FFF1FA217B307E407F50720F055
:100C3000A21BB30BE40BF50B661F771F881F991FD0
:100C40001A9469F760957095809590959B01AC0119
:100C5000BD01CF010895EE0FFF1F881F8BBF0790C6
:100C6000F691E02D19940E943A066894B1110C9403
:100C7000C90608950E94AE0688F09F5798F0B92FD4
:100C80009927B751B0F0E1F0660F771F881F991FC1
:100C90001AF0BA95C9F714C0B13091F00E94C80695
:100CA000B1E008950C94C806672F782F8827B85FA5
:100CB00039F0B93FCCF3869577956795B395D9F719
:100CC0003EF490958095709561957F4F8F4F9F4F23
:100CD0000895E89409C097FB3EF49095809570952F
:100CE00061957F4F8F4F9F4F9923A9F0F92F96E978
:100CF000BB279395F695879577956795B795F111ED
:100D0000F8CFFAF4BB0F11F460FF1BC06F5F7F4F89
:100D10008F4F9F4F16C0882311F096E911C077239B
:100D200021F09EE8872F762F05C0662371F096E8A4
:100D3000862F70E060E02AF09A95660F771F881F73
:100D4000DAF7880F9695879597F9089557FD90588B
:100D5000440F551F59F05F3F71F04795880F97FB7F
:100D6000991F61F09F3F79F0879508951216130639
:100D70001406551FF2CF4695F1DF08C01616170668
:100D80001806991FF1CF869571056105089408959D
:100D9000E894BB2766277727CB0197F908950E942F
:100DA000E2060C9453070E94450738F00E944C0756
:100DB00020F0952311F00C943C070C944207112469
:100DC0000C94C9060E94A60670F3959FC1F3950F77
:100DD00050E0551F629FF001729FBB27F00DB11DBF
:100DE000639FAA27F00DB11DAA1F649F6627B00D4F
:100DF000A11D661F829F2227B00DA11D621F739F38
:100E0000B00DA11D621F839FA00D611D221F749F45
:100E10003327A00D611D231F849F600D211D822F8C
:100E2000762F6A2F11249F5750409AF0F1F08823B3
:100E30004AF0EE0FFF1FBB1F661F771F881F9150E0
:100E40005040A9F79E3F510580F00C943C070C944C
:100E5000C9065F3FE4F3983ED4F38695779567958E
:100E6000B795F795E7959F5FC1F7FE2B880F911D0A
:100E70009695879597F9089597F99F6780E870E0B0
:100E800060E008959FEF80EC089500240A94161600
:100E9000170618060906089500240A941216130668
:100EA000140605060895092E0394000C11F48823F6
:100EB00052F0BB0F40F4BF2B11F460FF04C06F5F12
:100EC0007F4F8F4F9F4F089581E090E0F8940C94EE
:060ED0006907F894FFCF52
:100ED60000000000CB023402620218039302710282
:0A0EE60085022020636D000D0A0054
:00000001FF
