:100000000C9486000C94B7000C94B7000C94B700C5
:100010000C94B7000C94B7000C94B7000C94B70084
:100020000C94B7000C94B7000C94B7000C94B70074
:100030000C94B7000C94B7000C94B7000C94B70064
:100040000C94B7000C94B7000C94B7000C94B70054
:100050000C94B7000C94B7000C94B7000C946A028F
:100060000C94B7000C94DE020C94B4020C94B7000C
:100070000C94B7000C94B7000C94B7000C94B70024
:100080000C94B7000C94B7000C94B7000C94B70014
:100090000C94B7000C94B7000C94B7000C94B70004
:1000A0000C94B7000C94B7000C94B7000C94B700F4
:1000B0000C94B7000C94B7000C94B7000C94B700E4
:1000C0000C94B7000C94B7000C94B7000C94B700D4
:1000D0000C94B7000C94B7000C94B7000C94B700C4
:1000E0000C94B7000C943D010C942F010C94140354
:1000F0000C94DF000C940C010C9475010C94F10429
:100100000C941B010C94C2011403F10411241FBEB2
:10011000CFEFD1E2DEBFCDBF00E00CBF22E0A4E311
:10012000B2E001C01D92A43EB207E1F712E0A0E0E8
:10013000B2E0E6E0FFE000E00BBF02C007900D92E6
:10014000A433B107D9F710E0C5E8D0E000E006C05D
:1001500021970109802FFE010E944E05C438D10766
:1001600080E00807A9F70E947A030C9471070C94A9
:1001700000003FB7F8948091390290913A02A09123
:100180003B02B0913C0226B5A89B05C02F3F19F059
:100190000196A11DB11D3FBFBA2FA92F982F882707
:1001A000820F911DA11DB11DBC01CD0142E0660F62
:1001B000771F881F991F4A95D1F708950895CF9208
:1001C000DF92EF92FF920F931F93CF93DF936C0117
:1001D0007A018B01C0E0D0E0CE15DF0581F0D801B7
:1001E0006D918D01D601ED91FC910190F081E02D92
:1001F000C6011995892B11F02196EECF7E01C7011A
:10020000DF91CF911F910F91FF90EF90DF90CF90F2
:10021000089580E090E00895FC01538D448D252FD2
:1002200030E0842F90E0821B930B541710F0CF9690
:10023000089501970895FC01918D828D981761F0C2
:10024000828DDF01A80FB11D5D968C91928D9F5F0D
:100250009F73928F90E008958FEF9FEF0895FC01B8
:10026000918D828D981731F0828DE80FF11D858D6B
:1002700090E008958FEF9FEF0895FC01918D228DFE
:10028000892F90E0805C9F4F821B91098F73992783
:1002900008958DE392E00E943D0121E0892B09F44D
:1002A00020E0822F0895FC01848DDF01A80FB11D8D
:1002B000A35ABF4F2C91848D90E001968F7399279C
:1002C000848FA689B7892C93A089B1898C9183707A
:1002D00080648C93938D848D981306C00288F38973
:1002E000E02D80818F7D80830895EF92FF920F93A0
:1002F0001F93CF93DF93EC0181E0888F9B8D8C8DD2
:10030000981305C0E889F989808185FD26C0F62EFD
:100310000B8D10E00F5F1F4F0F731127E02E8C8D98
:10032000E8120CC00FB607FCFACFE889F989808182
:1003300085FFF5CFCE010E945301F1CF8B8DFE01D9
:10034000E80FF11DE35AFF4FF0829FB7F8940B8F2F
:10035000EA89FB89808180620AC09FB7F894EE89A0
:10036000FF896083E889F989808183708064808354
:100370009FBF81E090E0DF91CF911F910F91FF909F
:10038000EF900895CF93DF93EC01888D8823C9F017
:10039000EA89FB89808185FD05C0A889B9898C918E
:1003A00086FD0FC00FB607FCF5CF808185FFF2CF29
:1003B000A889B9898C9185FFEDCFCE010E945301A8
:1003C000E7CFDF91CF91089580E090E0892B21F075
:1003D0000E944901811125C080E090E0892B41F005
:1003E00080E090E0892B21F00E94000081111CC068
:1003F00080E090E0892B41F080E090E0892B21F0B3
:100400000E940000811113C080E090E0892BA1F0D0
:1004100080E090E0892B81F00E94000081110AC0E9
:1004200008950E940000D8CF0E940000E1CF0E94F2
:100430000000EACF0C9400000895009769F0FC01D9
:1004400001900020E9F73197AF01481B590BBC011F
:100450008DE392E00C94DF0080E090E00895CF936C
:10046000DF93EC0188819981009711F00E94EE05DD
:10047000198218821D821C821B821A82DF91CF9101
:1004800008950E945C070F931F93CF93DF93EC01B5
:1004900088819981009729F02A813B8126173707A7
:1004A00088F48B016F5F7F4F0E947706009761F0A1
:1004B000998388831B830A832C813D81232B11F42C
:1004C000FC01108281E001C080E0DF91CF911F919B
:1004D0000F9108951F920F920FB60F9211242F9330
:1004E0003F938F939F93AF93BF93809135029091E9
:1004F0003602A0913702B09138023091340223E0E5
:10050000230F2D3720F40196A11DB11D05C026E84B
:10051000230F0296A11DB11D209334028093350252
:1005200090933602A0933702B0933802809139023B
:1005300090913A02A0913B02B0913C020196A11D1C
:10054000B11D8093390290933A02A0933B02B0937D
:100550003C02BF91AF919F918F913F912F910F904E
:100560000FBE0F901F9018951F920F920FB60F920B
:1005700011240BB60F922F933F934F935F936F937A
:100580007F938F939F93AF93BF93EF93FF938DE3ED
:1005900092E00E945301FF91EF91BF91AF919F9123
:1005A0008F917F916F915F914F913F912F910F901C
:1005B0000BBE0F900FBE0F901F9018951F920F92B9
:1005C0000FB60F9211240BB60F922F938F939F9318
:1005D000EF93FF93E0914D02F0914E028081E09104
:1005E0005302F091540282FD12C090818091560214
:1005F0008F5F8F7320915702821751F0E09156025E
:10060000F0E0E35CFD4F958F8093560201C080813E
:10061000FF91EF919F918F912F910F900BBE0F90B3
:100620000FBE0F901F9018951092400210923F023B
:1006300088EE93E0A0E0B0E0809341029093420204
:10064000A0934302B09344028AE092E090933E026A
:1006500080933D0285EC90E090934A02809349029A
:1006600084EC90E090934C0280934B0280EC90E0FD
:1006700090934E0280934D0281EC90E09093500253
:1006800080934F0282EC90E090935202809351024B
:1006900086EC90E09093540280935302109256029D
:1006A0001092570210925802109259021092DB02D7
:1006B0001092DA021092DD021092DC021092DF0238
:1006C0001092DE0260E070E08AED92E00E94430248
:1006D000811104C08AED92E00C942F021092DF0287
:1006E0001092DE0267E272E08091DA029091DB0202
:1006F0000C946A07CF93DF93CDB7DEB7A7970FB6F9
:10070000F894DEBF0FBECDBF789484B5826084BDFF
:1007100084B5816084BD85B5826085BD85B5816005
:1007200085BD80916E00816080936E001092810083
:10073000809181008260809381008091810081603E
:1007400080938100809180008160809380008091FF
:10075000B10084608093B1008091B000816080938B
:10076000B00080919100826080939100809191000F
:1007700081608093910080919000816080939000CF
:100780008091A10082608093A1008091A10081608E
:100790008093A1008091A00081608093A00080914F
:1007A00021018260809321018091210181608093E9
:1007B00021018091200181608093200180917A0045
:1007C000846080937A0080917A00826080937A00BE
:1007D00080917A00816080937A0080917A008068AD
:1007E00080937A001092C100E0914D02F0914E0288
:1007F00082E08083E0914902F0914A021082E09108
:100800004B02F0914C028FEC808310925502E091E4
:100810005102F091520286E08083E0914F02F09104
:100820005002808180618083E0914F02F0915002FC
:10083000808188608083E0914F02F0915002808136
:1008400080688083E0914F02F091500280818F7D1B
:100850008083CE0101961C019AE0892E912CA12C57
:10086000B12C88E192E00E941D0285E292E00E9494
:100870001D028DE392E00E943D01892B09F44FC0D7
:100880008DE392E00E941B011BA21AA21DA21CA2D2
:100890001FA21EA24AE0B1010E94F704F1010190DB
:1008A0000020E9F731978F0102191309B801CE0131
:1008B00082960E944302811105C0CE0182960E9459
:1008C0002F0207C01FA30EA3B1018AA19BA10E9402
:1008D0006A078091DA029091DB02009741F06AA1E9
:1008E0007BA16115710509F069C00E94EE058AA11E
:1008F0009BA19093DB028093DA028CA19DA190933F
:10090000DD028093DC028EA19FA19093DF02809391
:10091000DE021BA21AA28AA19BA10E94EE0588E218
:1009200092E00E941D022091DE023091DF0240E041
:1009300050E019A28E010F5D1F4FCA01B901A50138
:1009400094010E942C05605DF80162938F012115CE
:1009500031054105510589F7CF010E941D0285E24D
:1009600092E00E941D020E94B9002B013C0180E42C
:10097000C82E8DE0D82E83E0E82EF12C0E94B9001D
:10098000DC01CB0184199509A609B709883E93407B
:10099000A105B10598F3F1E0CF1AD108E108F108FB
:1009A00028EE420E23E0521E611C711CC114D104BA
:1009B000E104F10419F70E94E40153CF4091DC02F5
:1009C0005091DD022EA13FA14217530708F48DCFAD
:1009D0000E946A078EA19FA19093DF028093DE029E
:1009E0009ACF8091DA029091DB020C94EE05BB273E
:1009F0004A3031F4992322F4BDE2909581959F4FBE
:100A00000C940305BB27FB015527AA27880F991FC4
:100A1000AA1FA41710F0A41B83955051B9F7A05D2D
:100A2000AA3308F0A95DA193009779F7B111B193AA
:100A30001192CB010C941C05DC01FC01672F719114
:100A40007723E1F7329704C07C916D9370836291B4
:100A5000AE17BF07C8F30895A1E21A2EAA1BBB1B4D
:100A6000FD010DC0AA1FBB1FEE1FFF1FA217B3077A
:100A7000E407F50720F0A21BB30BE40BF50B661F90
:100A8000771F881F991F1A9469F760957095809554
:100A900090959B01AC01BD01CF010895EE0FFF1FA2
:100AA000881F8BBF0790F691E02D19940F931F9329
:100AB000CF93DF938230910510F482E090E0E091D3
:100AC000E202F091E30220E030E0A0E0B0E03097F5
:100AD00019F1408151810281138148175907C8F0EB
:100AE0008417950769F4109731F012960C931297BA
:100AF00013961C9327C00093E2021093E30222C0D6
:100B00002115310519F04217530718F49A01BD0158
:100B1000EF01DF01F801DBCF21153105F9F0281BCA
:100B2000390B2430310580F48A819B816115710570
:100B300021F0FB019383828304C09093E3028093AE
:100B4000E202FE01329644C0FE01E20FF31F8193E0
:100B5000919322503109398328833AC02091E002D1
:100B60003091E102232B41F42091020230910302E3
:100B70003093E1022093E0022091000230910102C3
:100B80002115310541F42DB73EB740910402509133
:100B90000502241B350BE091E002F091E102E2171F
:100BA000F307A0F42E1B3F0B2817390778F0AC0190
:100BB0004E5F5F4F2417350748F04E0F5F1F50936D
:100BC000E1024093E0028193919302C0E0E0F0E003
:100BD000CF01DF91CF911F910F910895CF93DF93B4
:100BE000009709F481C0FC01329713821282A09110
:100BF000E202B091E302109781F420813181820FEB
:100C0000931F2091E0023091E1022817390751F536
:100C1000F093E102E093E00267C0ED0120E030E0F4
:100C2000CE17DF0740F44A815B819E0141155105D3
:100C3000F1F0EA01F5CFD383C28340815181840F63
:100C4000951FC817D90759F488819981840F951F7A
:100C50000296918380838A819B819383828321156D
:100C6000310529F4F093E302E093E2023DC0E9018B
:100C7000FB83EA8349915991C40FD51FEC17FD07F7
:100C800061F480819181840F951F0296E901998317
:100C90008883828193819B838A83E0E0F0E01296CF
:100CA0008D919C911397009719F0FD01DC01F7CF0E
:100CB0008D919C9111979D012E5F3F4F820F931F45
:100CC0002091E0023091E1022817390769F430974A
:100CD00029F41092E3021092E20202C013821282FF
:100CE000B093E102A093E002DF91CF9108956F925B
:100CF0007F928F929F92AF92BF92CF92DF92EF92AC
:100D0000FF920F931F93CF93DF93009789F4CB014A
:100D1000DF91CF911F910F91FF90EF90DF90CF90D7
:100D2000BF90AF909F908F907F906F900C945605DE
:100D3000FC01E60FF71F9C0122503109E217F3076F
:100D400008F4A9C0EC01D9010D911C911197061767
:100D50001707B0F00530110508F49BC0C8010497CF
:100D60008617970708F495C002501109061B170B48
:100D7000019311936D937C93CF010E94EE0589C07E
:100D80005B01A01AB10A4C01800E911EA091E202F3
:100D9000B091E302612C712CE12CF12C109709F435
:100DA00046C08D919C911197A815B905B1F56C01BC
:100DB00042E0C40ED11CCA14DB0478F14C018A183D
:100DC0009B08640142E0C40ED11C1296BC9012979D
:100DD0001396AC91B5E0CB16D10440F0B282A38358
:100DE00091828082D9016D937C9309C00E5F1F4F61
:100DF000800F911FF90191838083EB2DFA2FE1146D
:100E0000F10431F0D7011396FC93EE93129741C091
:100E1000F093E302E093E2023CC06816790608F41E
:100E20003C017D0112960D90BC91A02DB7CF809111
:100E3000E0029091E10288169906E1F466167706C1
:100E4000C8F48091000290910102009741F48DB79F
:100E50009EB74091040250910502841B950BE81740
:100E6000F907C8F4F093E102E093E002F90171831D
:100E700060830FC0CB010E9456057C01009759F09A
:100E8000A801BE010E946107CE010E94EE05C701C4
:100E900004C0CE0102C080E090E0DF91CF911F91AD
:100EA0000F91FF90EF90DF90CF90BF90AF909F9009
:100EB0008F907F906F90089581E090E0F8940C946B
:100EC0007107FB01DC0102C001900D9241505040BE
:100ED000D8F70895FB01DC0101900D920020E1F7A5
:100EE000089510E0C5E8D0E000E006C0802FFE01C4
:100EF0000E944E052196011DC638D10780E00807E3
:060F0000A9F7F894FFCFF1
:100F06000000E4022000000000007501DF000C0173
:100F1600C2013D011B012F01456E746572206120DF
:100F2600776F7264000D0A0054686520776F7264EB
:040F360020697300BB
:00000001FF
